{
  "contractName": "NewJholeKeta",
  "abi": [
    {
      "inputs": [
        {
          "internalType": "string",
          "name": "_name",
          "type": "string"
        },
        {
          "internalType": "string",
          "name": "_symbol",
          "type": "string"
        },
        {
          "internalType": "string",
          "name": "_initBaseURI",
          "type": "string"
        },
        {
          "internalType": "string",
          "name": "_initNotRevealedUri",
          "type": "string"
        }
      ],
      "stateMutability": "nonpayable",
      "type": "constructor"
    },
    {
      "anonymous": false,
      "inputs": [
        {
          "indexed": true,
          "internalType": "address",
          "name": "owner",
          "type": "address"
        },
        {
          "indexed": true,
          "internalType": "address",
          "name": "approved",
          "type": "address"
        },
        {
          "indexed": true,
          "internalType": "uint256",
          "name": "tokenId",
          "type": "uint256"
        }
      ],
      "name": "Approval",
      "type": "event"
    },
    {
      "anonymous": false,
      "inputs": [
        {
          "indexed": true,
          "internalType": "address",
          "name": "owner",
          "type": "address"
        },
        {
          "indexed": true,
          "internalType": "address",
          "name": "operator",
          "type": "address"
        },
        {
          "indexed": false,
          "internalType": "bool",
          "name": "approved",
          "type": "bool"
        }
      ],
      "name": "ApprovalForAll",
      "type": "event"
    },
    {
      "anonymous": false,
      "inputs": [
        {
          "indexed": true,
          "internalType": "address",
          "name": "previousOwner",
          "type": "address"
        },
        {
          "indexed": true,
          "internalType": "address",
          "name": "newOwner",
          "type": "address"
        }
      ],
      "name": "OwnershipTransferred",
      "type": "event"
    },
    {
      "anonymous": false,
      "inputs": [
        {
          "indexed": true,
          "internalType": "address",
          "name": "from",
          "type": "address"
        },
        {
          "indexed": true,
          "internalType": "address",
          "name": "to",
          "type": "address"
        },
        {
          "indexed": true,
          "internalType": "uint256",
          "name": "tokenId",
          "type": "uint256"
        }
      ],
      "name": "Transfer",
      "type": "event"
    },
    {
      "inputs": [
        {
          "internalType": "address",
          "name": "to",
          "type": "address"
        },
        {
          "internalType": "uint256",
          "name": "tokenId",
          "type": "uint256"
        }
      ],
      "name": "approve",
      "outputs": [],
      "stateMutability": "nonpayable",
      "type": "function"
    },
    {
      "inputs": [
        {
          "internalType": "address",
          "name": "owner",
          "type": "address"
        }
      ],
      "name": "balanceOf",
      "outputs": [
        {
          "internalType": "uint256",
          "name": "",
          "type": "uint256"
        }
      ],
      "stateMutability": "view",
      "type": "function",
      "constant": true
    },
    {
      "inputs": [],
      "name": "baseExtension",
      "outputs": [
        {
          "internalType": "string",
          "name": "",
          "type": "string"
        }
      ],
      "stateMutability": "view",
      "type": "function",
      "constant": true
    },
    {
      "inputs": [],
      "name": "cost",
      "outputs": [
        {
          "internalType": "uint256",
          "name": "",
          "type": "uint256"
        }
      ],
      "stateMutability": "view",
      "type": "function",
      "constant": true
    },
    {
      "inputs": [
        {
          "internalType": "uint256",
          "name": "tokenId",
          "type": "uint256"
        }
      ],
      "name": "getApproved",
      "outputs": [
        {
          "internalType": "address",
          "name": "",
          "type": "address"
        }
      ],
      "stateMutability": "view",
      "type": "function",
      "constant": true
    },
    {
      "inputs": [
        {
          "internalType": "address",
          "name": "owner",
          "type": "address"
        },
        {
          "internalType": "address",
          "name": "operator",
          "type": "address"
        }
      ],
      "name": "isApprovedForAll",
      "outputs": [
        {
          "internalType": "bool",
          "name": "",
          "type": "bool"
        }
      ],
      "stateMutability": "view",
      "type": "function",
      "constant": true
    },
    {
      "inputs": [],
      "name": "maxAmountForAnAccount",
      "outputs": [
        {
          "internalType": "uint256",
          "name": "",
          "type": "uint256"
        }
      ],
      "stateMutability": "view",
      "type": "function",
      "constant": true
    },
    {
      "inputs": [],
      "name": "maxMintAmount",
      "outputs": [
        {
          "internalType": "uint256",
          "name": "",
          "type": "uint256"
        }
      ],
      "stateMutability": "view",
      "type": "function",
      "constant": true
    },
    {
      "inputs": [],
      "name": "maxSupply",
      "outputs": [
        {
          "internalType": "uint256",
          "name": "",
          "type": "uint256"
        }
      ],
      "stateMutability": "view",
      "type": "function",
      "constant": true
    },
    {
      "inputs": [],
      "name": "name",
      "outputs": [
        {
          "internalType": "string",
          "name": "",
          "type": "string"
        }
      ],
      "stateMutability": "view",
      "type": "function",
      "constant": true
    },
    {
      "inputs": [],
      "name": "notRevealedUri",
      "outputs": [
        {
          "internalType": "string",
          "name": "",
          "type": "string"
        }
      ],
      "stateMutability": "view",
      "type": "function",
      "constant": true
    },
    {
      "inputs": [],
      "name": "owner",
      "outputs": [
        {
          "internalType": "address",
          "name": "",
          "type": "address"
        }
      ],
      "stateMutability": "view",
      "type": "function",
      "constant": true
    },
    {
      "inputs": [
        {
          "internalType": "uint256",
          "name": "tokenId",
          "type": "uint256"
        }
      ],
      "name": "ownerOf",
      "outputs": [
        {
          "internalType": "address",
          "name": "",
          "type": "address"
        }
      ],
      "stateMutability": "view",
      "type": "function",
      "constant": true
    },
    {
      "inputs": [],
      "name": "paused",
      "outputs": [
        {
          "internalType": "bool",
          "name": "",
          "type": "bool"
        }
      ],
      "stateMutability": "view",
      "type": "function",
      "constant": true
    },
    {
      "inputs": [],
      "name": "renounceOwnership",
      "outputs": [],
      "stateMutability": "nonpayable",
      "type": "function"
    },
    {
      "inputs": [],
      "name": "revealed",
      "outputs": [
        {
          "internalType": "bool",
          "name": "",
          "type": "bool"
        }
      ],
      "stateMutability": "view",
      "type": "function",
      "constant": true
    },
    {
      "inputs": [
        {
          "internalType": "address",
          "name": "from",
          "type": "address"
        },
        {
          "internalType": "address",
          "name": "to",
          "type": "address"
        },
        {
          "internalType": "uint256",
          "name": "tokenId",
          "type": "uint256"
        }
      ],
      "name": "safeTransferFrom",
      "outputs": [],
      "stateMutability": "nonpayable",
      "type": "function"
    },
    {
      "inputs": [
        {
          "internalType": "address",
          "name": "from",
          "type": "address"
        },
        {
          "internalType": "address",
          "name": "to",
          "type": "address"
        },
        {
          "internalType": "uint256",
          "name": "tokenId",
          "type": "uint256"
        },
        {
          "internalType": "bytes",
          "name": "_data",
          "type": "bytes"
        }
      ],
      "name": "safeTransferFrom",
      "outputs": [],
      "stateMutability": "nonpayable",
      "type": "function"
    },
    {
      "inputs": [
        {
          "internalType": "address",
          "name": "operator",
          "type": "address"
        },
        {
          "internalType": "bool",
          "name": "approved",
          "type": "bool"
        }
      ],
      "name": "setApprovalForAll",
      "outputs": [],
      "stateMutability": "nonpayable",
      "type": "function"
    },
    {
      "inputs": [
        {
          "internalType": "bytes4",
          "name": "interfaceId",
          "type": "bytes4"
        }
      ],
      "name": "supportsInterface",
      "outputs": [
        {
          "internalType": "bool",
          "name": "",
          "type": "bool"
        }
      ],
      "stateMutability": "view",
      "type": "function",
      "constant": true
    },
    {
      "inputs": [],
      "name": "symbol",
      "outputs": [
        {
          "internalType": "string",
          "name": "",
          "type": "string"
        }
      ],
      "stateMutability": "view",
      "type": "function",
      "constant": true
    },
    {
      "inputs": [
        {
          "internalType": "uint256",
          "name": "index",
          "type": "uint256"
        }
      ],
      "name": "tokenByIndex",
      "outputs": [
        {
          "internalType": "uint256",
          "name": "",
          "type": "uint256"
        }
      ],
      "stateMutability": "view",
      "type": "function",
      "constant": true
    },
    {
      "inputs": [
        {
          "internalType": "address",
          "name": "owner",
          "type": "address"
        },
        {
          "internalType": "uint256",
          "name": "index",
          "type": "uint256"
        }
      ],
      "name": "tokenOfOwnerByIndex",
      "outputs": [
        {
          "internalType": "uint256",
          "name": "",
          "type": "uint256"
        }
      ],
      "stateMutability": "view",
      "type": "function",
      "constant": true
    },
    {
      "inputs": [],
      "name": "totalSupply",
      "outputs": [
        {
          "internalType": "uint256",
          "name": "",
          "type": "uint256"
        }
      ],
      "stateMutability": "view",
      "type": "function",
      "constant": true
    },
    {
      "inputs": [
        {
          "internalType": "address",
          "name": "from",
          "type": "address"
        },
        {
          "internalType": "address",
          "name": "to",
          "type": "address"
        },
        {
          "internalType": "uint256",
          "name": "tokenId",
          "type": "uint256"
        }
      ],
      "name": "transferFrom",
      "outputs": [],
      "stateMutability": "nonpayable",
      "type": "function"
    },
    {
      "inputs": [
        {
          "internalType": "address",
          "name": "newOwner",
          "type": "address"
        }
      ],
      "name": "transferOwnership",
      "outputs": [],
      "stateMutability": "nonpayable",
      "type": "function"
    },
    {
      "inputs": [],
      "name": "myWalletBalance",
      "outputs": [
        {
          "internalType": "uint256",
          "name": "",
          "type": "uint256"
        }
      ],
      "stateMutability": "view",
      "type": "function",
      "constant": true
    },
    {
      "inputs": [],
      "name": "isAccountWhiteListed",
      "outputs": [
        {
          "internalType": "bool",
          "name": "",
          "type": "bool"
        }
      ],
      "stateMutability": "view",
      "type": "function",
      "constant": true
    },
    {
      "inputs": [
        {
          "internalType": "uint256",
          "name": "_mintAmount",
          "type": "uint256"
        }
      ],
      "name": "mint",
      "outputs": [],
      "stateMutability": "payable",
      "type": "function",
      "payable": true
    },
    {
      "inputs": [
        {
          "internalType": "address",
          "name": "_owner",
          "type": "address"
        }
      ],
      "name": "walletOfOwner",
      "outputs": [
        {
          "internalType": "uint256[]",
          "name": "",
          "type": "uint256[]"
        }
      ],
      "stateMutability": "view",
      "type": "function",
      "constant": true
    },
    {
      "inputs": [
        {
          "internalType": "uint256",
          "name": "tokenId",
          "type": "uint256"
        }
      ],
      "name": "tokenURI",
      "outputs": [
        {
          "internalType": "string",
          "name": "",
          "type": "string"
        }
      ],
      "stateMutability": "view",
      "type": "function",
      "constant": true
    },
    {
      "inputs": [],
      "name": "reveal",
      "outputs": [],
      "stateMutability": "nonpayable",
      "type": "function"
    },
    {
      "inputs": [
        {
          "internalType": "address",
          "name": "_addresToAdd",
          "type": "address"
        }
      ],
      "name": "addWhiteListedMember",
      "outputs": [],
      "stateMutability": "nonpayable",
      "type": "function"
    },
    {
      "inputs": [
        {
          "internalType": "uint256",
          "name": "_maxBalancetohave",
          "type": "uint256"
        }
      ],
      "name": "setMaxWalletBalance",
      "outputs": [],
      "stateMutability": "nonpayable",
      "type": "function"
    },
    {
      "inputs": [
        {
          "internalType": "uint256",
          "name": "_newCost",
          "type": "uint256"
        }
      ],
      "name": "setCost",
      "outputs": [],
      "stateMutability": "nonpayable",
      "type": "function"
    },
    {
      "inputs": [
        {
          "internalType": "uint256",
          "name": "_newmaxMintAmount",
          "type": "uint256"
        }
      ],
      "name": "setmaxMintAmount",
      "outputs": [],
      "stateMutability": "nonpayable",
      "type": "function"
    },
    {
      "inputs": [
        {
          "internalType": "string",
          "name": "_notRevealedURI",
          "type": "string"
        }
      ],
      "name": "setNotRevealedURI",
      "outputs": [],
      "stateMutability": "nonpayable",
      "type": "function"
    },
    {
      "inputs": [
        {
          "internalType": "string",
          "name": "_newBaseURI",
          "type": "string"
        }
      ],
      "name": "setBaseURI",
      "outputs": [],
      "stateMutability": "nonpayable",
      "type": "function"
    },
    {
      "inputs": [
        {
          "internalType": "string",
          "name": "_newBaseExtension",
          "type": "string"
        }
      ],
      "name": "setBaseExtension",
      "outputs": [],
      "stateMutability": "nonpayable",
      "type": "function"
    },
    {
      "inputs": [
        {
          "internalType": "bool",
          "name": "_state",
          "type": "bool"
        }
      ],
      "name": "pause",
      "outputs": [],
      "stateMutability": "nonpayable",
      "type": "function"
    },
    {
      "inputs": [],
      "name": "withdraw",
      "outputs": [],
      "stateMutability": "payable",
      "type": "function",
      "payable": true
    }
  ],
  "bytecode": "0x60806040526040518060400160405280600581526020017f2e6a736f6e000000000000000000000000000000000000000000000000000000815250600c908051906020019062000051929190620003a5565b50662386f26fc10000600d55606e600e556005600f5560056010556000601160006101000a81548160ff0219169083151502179055506001601160016101000a81548160ff021916908315150217905550348015620000af57600080fd5b5060405162004f2038038062004f208339818101604052810190620000d59190620005f2565b83838160009080519060200190620000ef929190620003a5565b50806001908051906020019062000108929190620003a5565b5050506200012b6200011f6200015760201b60201c565b6200015f60201b60201c565b6200013c826200022560201b60201c565b6200014d81620002d060201b60201c565b50505050620007c8565b600033905090565b6000600a60009054906101000a900473ffffffffffffffffffffffffffffffffffffffff16905081600a60006101000a81548173ffffffffffffffffffffffffffffffffffffffff021916908373ffffffffffffffffffffffffffffffffffffffff1602179055508173ffffffffffffffffffffffffffffffffffffffff168173ffffffffffffffffffffffffffffffffffffffff167f8be0079c531659141344cd1fd0a4f28419497f9722a3daafe3b4186f6b6457e060405160405180910390a35050565b620002356200015760201b60201c565b73ffffffffffffffffffffffffffffffffffffffff166200025b6200037b60201b60201c565b73ffffffffffffffffffffffffffffffffffffffff1614620002b4576040517f08c379a0000000000000000000000000000000000000000000000000000000008152600401620002ab9062000741565b60405180910390fd5b80600b9080519060200190620002cc929190620003a5565b5050565b620002e06200015760201b60201c565b73ffffffffffffffffffffffffffffffffffffffff16620003066200037b60201b60201c565b73ffffffffffffffffffffffffffffffffffffffff16146200035f576040517f08c379a0000000000000000000000000000000000000000000000000000000008152600401620003569062000741565b60405180910390fd5b806012908051906020019062000377929190620003a5565b5050565b6000600a60009054906101000a900473ffffffffffffffffffffffffffffffffffffffff16905090565b828054620003b39062000792565b90600052602060002090601f016020900481019282620003d7576000855562000423565b82601f10620003f257805160ff191683800117855562000423565b8280016001018555821562000423579182015b828111156200042257825182559160200191906001019062000405565b5b50905062000432919062000436565b5090565b5b808211156200045157600081600090555060010162000437565b5090565b6000604051905090565b600080fd5b600080fd5b600080fd5b600080fd5b6000601f19601f8301169050919050565b7f4e487b7100000000000000000000000000000000000000000000000000000000600052604160045260246000fd5b620004be8262000473565b810181811067ffffffffffffffff82111715620004e057620004df62000484565b5b80604052505050565b6000620004f562000455565b9050620005038282620004b3565b919050565b600067ffffffffffffffff82111562000526576200052562000484565b5b620005318262000473565b9050602081019050919050565b60005b838110156200055e57808201518184015260208101905062000541565b838111156200056e576000848401525b50505050565b60006200058b620005858462000508565b620004e9565b905082815260208101848484011115620005aa57620005a96200046e565b5b620005b78482856200053e565b509392505050565b600082601f830112620005d757620005d662000469565b5b8151620005e984826020860162000574565b91505092915050565b600080600080608085870312156200060f576200060e6200045f565b5b600085015167ffffffffffffffff81111562000630576200062f62000464565b5b6200063e87828801620005bf565b945050602085015167ffffffffffffffff81111562000662576200066162000464565b5b6200067087828801620005bf565b935050604085015167ffffffffffffffff81111562000694576200069362000464565b5b620006a287828801620005bf565b925050606085015167ffffffffffffffff811115620006c657620006c562000464565b5b620006d487828801620005bf565b91505092959194509250565b600082825260208201905092915050565b7f4f776e61626c653a2063616c6c6572206973206e6f7420746865206f776e6572600082015250565b600062000729602083620006e0565b91506200073682620006f1565b602082019050919050565b600060208201905081810360008301526200075c816200071a565b9050919050565b7f4e487b7100000000000000000000000000000000000000000000000000000000600052602260045260246000fd5b60006002820490506001821680620007ab57607f821691505b60208210811415620007c257620007c162000763565b5b50919050565b61474880620007d86000396000f3fe6080604052600436106102465760003560e01c80635c975abb11610139578063ace0c301116100b6578063da3ef23f1161007a578063da3ef23f14610850578063e985e9c514610879578063f215d6ae146108b6578063f2c4ce1e146108e1578063f2fde38b1461090a578063fa6cefc61461093357610246565b8063ace0c30114610769578063b88d4fde14610794578063c6682862146107bd578063c87b56dd146107e8578063d5abeb011461082557610246565b80638da5cb5b116100fd5780638da5cb5b146106b757806395d89b41146106e2578063a0712d681461070d578063a22cb46514610729578063a475b5dd1461075257610246565b80635c975abb146105d25780636352211e146105fd57806370a082311461063a578063715018a6146106775780637f00c7a61461068e57610246565b806323b872dd116101c7578063438b63001161018b578063438b6300146104db57806344a0d68a146105185780634f6ccce714610541578063518302271461057e57806355f804b3146105a957610246565b806323b872dd146104195780632f745c59146104425780633a9e00de1461047f5780633ccfd60b146104a857806342842e0e146104b257610246565b8063095ea7b31161020e578063095ea7b31461034457806313faede61461036d578063149cbaa01461039857806318160ddd146103c3578063239c70ae146103ee57610246565b806301ffc9a71461024b57806302329a291461028857806306fdde03146102b1578063081812fc146102dc578063081c8c4414610319575b600080fd5b34801561025757600080fd5b50610272600480360381019061026d9190613142565b61095c565b60405161027f919061318a565b60405180910390f35b34801561029457600080fd5b506102af60048036038101906102aa91906131d1565b6109d6565b005b3480156102bd57600080fd5b506102c6610a6f565b6040516102d39190613297565b60405180910390f35b3480156102e857600080fd5b5061030360048036038101906102fe91906132ef565b610b01565b604051610310919061335d565b60405180910390f35b34801561032557600080fd5b5061032e610b86565b60405161033b9190613297565b60405180910390f35b34801561035057600080fd5b5061036b600480360381019061036691906133a4565b610c14565b005b34801561037957600080fd5b50610382610d2c565b60405161038f91906133f3565b60405180910390f35b3480156103a457600080fd5b506103ad610d32565b6040516103ba91906133f3565b60405180910390f35b3480156103cf57600080fd5b506103d8610d48565b6040516103e591906133f3565b60405180910390f35b3480156103fa57600080fd5b50610403610d55565b60405161041091906133f3565b60405180910390f35b34801561042557600080fd5b50610440600480360381019061043b919061340e565b610d5b565b005b34801561044e57600080fd5b50610469600480360381019061046491906133a4565b610dbb565b60405161047691906133f3565b60405180910390f35b34801561048b57600080fd5b506104a660048036038101906104a191906132ef565b610e60565b005b6104b0610ee6565b005b3480156104be57600080fd5b506104d960048036038101906104d4919061340e565b610fe2565b005b3480156104e757600080fd5b5061050260048036038101906104fd9190613461565b611002565b60405161050f919061354c565b60405180910390f35b34801561052457600080fd5b5061053f600480360381019061053a91906132ef565b6110b0565b005b34801561054d57600080fd5b50610568600480360381019061056391906132ef565b611136565b60405161057591906133f3565b60405180910390f35b34801561058a57600080fd5b506105936111a7565b6040516105a0919061318a565b60405180910390f35b3480156105b557600080fd5b506105d060048036038101906105cb91906136a3565b6111ba565b005b3480156105de57600080fd5b506105e7611250565b6040516105f4919061318a565b60405180910390f35b34801561060957600080fd5b50610624600480360381019061061f91906132ef565b611263565b604051610631919061335d565b60405180910390f35b34801561064657600080fd5b50610661600480360381019061065c9190613461565b611315565b60405161066e91906133f3565b60405180910390f35b34801561068357600080fd5b5061068c6113cd565b005b34801561069a57600080fd5b506106b560048036038101906106b091906132ef565b611455565b005b3480156106c357600080fd5b506106cc6114db565b6040516106d9919061335d565b60405180910390f35b3480156106ee57600080fd5b506106f7611505565b6040516107049190613297565b60405180910390f35b610727600480360381019061072291906132ef565b611597565b005b34801561073557600080fd5b50610750600480360381019061074b91906136ec565b6116ea565b005b34801561075e57600080fd5b50610767611700565b005b34801561077557600080fd5b5061077e611799565b60405161078b919061318a565b60405180910390f35b3480156107a057600080fd5b506107bb60048036038101906107b691906137cd565b6117ed565b005b3480156107c957600080fd5b506107d261184f565b6040516107df9190613297565b60405180910390f35b3480156107f457600080fd5b5061080f600480360381019061080a91906132ef565b6118dd565b60405161081c9190613297565b60405180910390f35b34801561083157600080fd5b5061083a611a36565b60405161084791906133f3565b60405180910390f35b34801561085c57600080fd5b50610877600480360381019061087291906136a3565b611a3c565b005b34801561088557600080fd5b506108a0600480360381019061089b9190613850565b611ad2565b6040516108ad919061318a565b60405180910390f35b3480156108c257600080fd5b506108cb611b66565b6040516108d891906133f3565b60405180910390f35b3480156108ed57600080fd5b50610908600480360381019061090391906136a3565b611b6c565b005b34801561091657600080fd5b50610931600480360381019061092c9190613461565b611c02565b005b34801561093f57600080fd5b5061095a60048036038101906109559190613461565b611cfa565b005b60007f780e9d63000000000000000000000000000000000000000000000000000000007bffffffffffffffffffffffffffffffffffffffffffffffffffffffff1916827bffffffffffffffffffffffffffffffffffffffffffffffffffffffff191614806109cf57506109ce82611dd1565b5b9050919050565b6109de611eb3565b73ffffffffffffffffffffffffffffffffffffffff166109fc6114db565b73ffffffffffffffffffffffffffffffffffffffff1614610a52576040517f08c379a0000000000000000000000000000000000000000000000000000000008152600401610a49906138dc565b60405180910390fd5b80601160006101000a81548160ff02191690831515021790555050565b606060008054610a7e9061392b565b80601f0160208091040260200160405190810160405280929190818152602001828054610aaa9061392b565b8015610af75780601f10610acc57610100808354040283529160200191610af7565b820191906000526020600020905b815481529060010190602001808311610ada57829003601f168201915b5050505050905090565b6000610b0c82611ebb565b610b4b576040517f08c379a0000000000000000000000000000000000000000000000000000000008152600401610b42906139cf565b60405180910390fd5b6004600083815260200190815260200160002060009054906101000a900473ffffffffffffffffffffffffffffffffffffffff169050919050565b60128054610b939061392b565b80601f0160208091040260200160405190810160405280929190818152602001828054610bbf9061392b565b8015610c0c5780601f10610be157610100808354040283529160200191610c0c565b820191906000526020600020905b815481529060010190602001808311610bef57829003601f168201915b505050505081565b6000610c1f82611263565b90508073ffffffffffffffffffffffffffffffffffffffff168373ffffffffffffffffffffffffffffffffffffffff161415610c90576040517f08c379a0000000000000000000000000000000000000000000000000000000008152600401610c8790613a61565b60405180910390fd5b8073ffffffffffffffffffffffffffffffffffffffff16610caf611eb3565b73ffffffffffffffffffffffffffffffffffffffff161480610cde5750610cdd81610cd8611eb3565b611ad2565b5b610d1d576040517f08c379a0000000000000000000000000000000000000000000000000000000008152600401610d1490613af3565b60405180910390fd5b610d278383611f27565b505050565b600d5481565b600080610d3e33611002565b9050805191505090565b6000600880549050905090565b600f5481565b610d6c610d66611eb3565b82611fe0565b610dab576040517f08c379a0000000000000000000000000000000000000000000000000000000008152600401610da290613b85565b60405180910390fd5b610db68383836120be565b505050565b6000610dc683611315565b8210610e07576040517f08c379a0000000000000000000000000000000000000000000000000000000008152600401610dfe90613c17565b60405180910390fd5b600660008473ffffffffffffffffffffffffffffffffffffffff1673ffffffffffffffffffffffffffffffffffffffff168152602001908152602001600020600083815260200190815260200160002054905092915050565b610e68611eb3565b73ffffffffffffffffffffffffffffffffffffffff16610e866114db565b73ffffffffffffffffffffffffffffffffffffffff1614610edc576040517f08c379a0000000000000000000000000000000000000000000000000000000008152600401610ed3906138dc565b60405180910390fd5b8060108190555050565b610eee611eb3565b73ffffffffffffffffffffffffffffffffffffffff16610f0c6114db565b73ffffffffffffffffffffffffffffffffffffffff1614610f62576040517f08c379a0000000000000000000000000000000000000000000000000000000008152600401610f59906138dc565b60405180910390fd5b6000610f6c6114db565b73ffffffffffffffffffffffffffffffffffffffff1647604051610f8f90613c68565b60006040518083038185875af1925050503d8060008114610fcc576040519150601f19603f3d011682016040523d82523d6000602084013e610fd1565b606091505b5050905080610fdf57600080fd5b50565b610ffd838383604051806020016040528060008152506117ed565b505050565b6060600061100f83611315565b905060008167ffffffffffffffff81111561102d5761102c613578565b5b60405190808252806020026020018201604052801561105b5781602001602082028036833780820191505090505b50905060005b828110156110a5576110738582610dbb565b82828151811061108657611085613c7d565b5b602002602001018181525050808061109d90613cdb565b915050611061565b508092505050919050565b6110b8611eb3565b73ffffffffffffffffffffffffffffffffffffffff166110d66114db565b73ffffffffffffffffffffffffffffffffffffffff161461112c576040517f08c379a0000000000000000000000000000000000000000000000000000000008152600401611123906138dc565b60405180910390fd5b80600d8190555050565b6000611140610d48565b8210611181576040517f08c379a000000000000000000000000000000000000000000000000000000000815260040161117890613d96565b60405180910390fd5b6008828154811061119557611194613c7d565b5b90600052602060002001549050919050565b601160019054906101000a900460ff1681565b6111c2611eb3565b73ffffffffffffffffffffffffffffffffffffffff166111e06114db565b73ffffffffffffffffffffffffffffffffffffffff1614611236576040517f08c379a000000000000000000000000000000000000000000000000000000000815260040161122d906138dc565b60405180910390fd5b80600b908051906020019061124c929190613033565b5050565b601160009054906101000a900460ff1681565b6000806002600084815260200190815260200160002060009054906101000a900473ffffffffffffffffffffffffffffffffffffffff169050600073ffffffffffffffffffffffffffffffffffffffff168173ffffffffffffffffffffffffffffffffffffffff16141561130c576040517f08c379a000000000000000000000000000000000000000000000000000000000815260040161130390613e28565b60405180910390fd5b80915050919050565b60008073ffffffffffffffffffffffffffffffffffffffff168273ffffffffffffffffffffffffffffffffffffffff161415611386576040517f08c379a000000000000000000000000000000000000000000000000000000000815260040161137d90613eba565b60405180910390fd5b600360008373ffffffffffffffffffffffffffffffffffffffff1673ffffffffffffffffffffffffffffffffffffffff168152602001908152602001600020549050919050565b6113d5611eb3565b73ffffffffffffffffffffffffffffffffffffffff166113f36114db565b73ffffffffffffffffffffffffffffffffffffffff1614611449576040517f08c379a0000000000000000000000000000000000000000000000000000000008152600401611440906138dc565b60405180910390fd5b6114536000612325565b565b61145d611eb3565b73ffffffffffffffffffffffffffffffffffffffff1661147b6114db565b73ffffffffffffffffffffffffffffffffffffffff16146114d1576040517f08c379a00000000000000000000000000000000000000000000000000000000081526004016114c8906138dc565b60405180910390fd5b80600f8190555050565b6000600a60009054906101000a900473ffffffffffffffffffffffffffffffffffffffff16905090565b6060600180546115149061392b565b80601f01602080910402602001604051908101604052809291908181526020018280546115409061392b565b801561158d5780601f106115625761010080835404028352916020019161158d565b820191906000526020600020905b81548152906001019060200180831161157057829003601f168201915b5050505050905090565b60006115a1610d48565b9050601160009054906101000a900460ff16156115bd57600080fd5b600082116115ca57600080fd5b600f548211156115d957600080fd5b600e5482826115e89190613eda565b11156115f357600080fd5b600f546115fe610d32565b1061160857600080fd5b6116106114db565b73ffffffffffffffffffffffffffffffffffffffff163373ffffffffffffffffffffffffffffffffffffffff16146116af57601360003373ffffffffffffffffffffffffffffffffffffffff1673ffffffffffffffffffffffffffffffffffffffff16815260200190815260200160002060009054906101000a900460ff166116ae5781600d546116a19190613f30565b3410156116ad57600080fd5b5b5b6000600190505b8281116116e5576116d23382846116cd9190613eda565b6123eb565b80806116dd90613cdb565b9150506116b6565b505050565b6116fc6116f5611eb3565b8383612409565b5050565b611708611eb3565b73ffffffffffffffffffffffffffffffffffffffff166117266114db565b73ffffffffffffffffffffffffffffffffffffffff161461177c576040517f08c379a0000000000000000000000000000000000000000000000000000000008152600401611773906138dc565b60405180910390fd5b6001601160016101000a81548160ff021916908315150217905550565b6000601360003373ffffffffffffffffffffffffffffffffffffffff1673ffffffffffffffffffffffffffffffffffffffff16815260200190815260200160002060009054906101000a900460ff16905090565b6117fe6117f8611eb3565b83611fe0565b61183d576040517f08c379a000000000000000000000000000000000000000000000000000000000815260040161183490613b85565b60405180910390fd5b61184984848484612576565b50505050565b600c805461185c9061392b565b80601f01602080910402602001604051908101604052809291908181526020018280546118889061392b565b80156118d55780601f106118aa576101008083540402835291602001916118d5565b820191906000526020600020905b8154815290600101906020018083116118b857829003601f168201915b505050505081565b60606118e882611ebb565b611927576040517f08c379a000000000000000000000000000000000000000000000000000000000815260040161191e90613ffc565b60405180910390fd5b60001515601160019054906101000a900460ff16151514156119d557601280546119509061392b565b80601f016020809104026020016040519081016040528092919081815260200182805461197c9061392b565b80156119c95780601f1061199e576101008083540402835291602001916119c9565b820191906000526020600020905b8154815290600101906020018083116119ac57829003601f168201915b50505050509050611a31565b60006119df6125d2565b905060008151116119ff5760405180602001604052806000815250611a2d565b80611a0984612664565b600c604051602001611a1d939291906140ec565b6040516020818303038152906040525b9150505b919050565b600e5481565b611a44611eb3565b73ffffffffffffffffffffffffffffffffffffffff16611a626114db565b73ffffffffffffffffffffffffffffffffffffffff1614611ab8576040517f08c379a0000000000000000000000000000000000000000000000000000000008152600401611aaf906138dc565b60405180910390fd5b80600c9080519060200190611ace929190613033565b5050565b6000600560008473ffffffffffffffffffffffffffffffffffffffff1673ffffffffffffffffffffffffffffffffffffffff16815260200190815260200160002060008373ffffffffffffffffffffffffffffffffffffffff1673ffffffffffffffffffffffffffffffffffffffff16815260200190815260200160002060009054906101000a900460ff16905092915050565b60105481565b611b74611eb3565b73ffffffffffffffffffffffffffffffffffffffff16611b926114db565b73ffffffffffffffffffffffffffffffffffffffff1614611be8576040517f08c379a0000000000000000000000000000000000000000000000000000000008152600401611bdf906138dc565b60405180910390fd5b8060129080519060200190611bfe929190613033565b5050565b611c0a611eb3565b73ffffffffffffffffffffffffffffffffffffffff16611c286114db565b73ffffffffffffffffffffffffffffffffffffffff1614611c7e576040517f08c379a0000000000000000000000000000000000000000000000000000000008152600401611c75906138dc565b60405180910390fd5b600073ffffffffffffffffffffffffffffffffffffffff168173ffffffffffffffffffffffffffffffffffffffff161415611cee576040517f08c379a0000000000000000000000000000000000000000000000000000000008152600401611ce59061418f565b60405180910390fd5b611cf781612325565b50565b611d02611eb3565b73ffffffffffffffffffffffffffffffffffffffff16611d206114db565b73ffffffffffffffffffffffffffffffffffffffff1614611d76576040517f08c379a0000000000000000000000000000000000000000000000000000000008152600401611d6d906138dc565b60405180910390fd5b6001601360008373ffffffffffffffffffffffffffffffffffffffff1673ffffffffffffffffffffffffffffffffffffffff16815260200190815260200160002060006101000a81548160ff02191690831515021790555050565b60007f80ac58cd000000000000000000000000000000000000000000000000000000007bffffffffffffffffffffffffffffffffffffffffffffffffffffffff1916827bffffffffffffffffffffffffffffffffffffffffffffffffffffffff19161480611e9c57507f5b5e139f000000000000000000000000000000000000000000000000000000007bffffffffffffffffffffffffffffffffffffffffffffffffffffffff1916827bffffffffffffffffffffffffffffffffffffffffffffffffffffffff1916145b80611eac5750611eab826127c5565b5b9050919050565b600033905090565b60008073ffffffffffffffffffffffffffffffffffffffff166002600084815260200190815260200160002060009054906101000a900473ffffffffffffffffffffffffffffffffffffffff1673ffffffffffffffffffffffffffffffffffffffff1614159050919050565b816004600083815260200190815260200160002060006101000a81548173ffffffffffffffffffffffffffffffffffffffff021916908373ffffffffffffffffffffffffffffffffffffffff160217905550808273ffffffffffffffffffffffffffffffffffffffff16611f9a83611263565b73ffffffffffffffffffffffffffffffffffffffff167f8c5be1e5ebec7d5bd14f71427d1e84f3dd0314c0f7b2291e5b200ac8c7c3b92560405160405180910390a45050565b6000611feb82611ebb565b61202a576040517f08c379a000000000000000000000000000000000000000000000000000000000815260040161202190614221565b60405180910390fd5b600061203583611263565b90508073ffffffffffffffffffffffffffffffffffffffff168473ffffffffffffffffffffffffffffffffffffffff16148061207757506120768185611ad2565b5b806120b557508373ffffffffffffffffffffffffffffffffffffffff1661209d84610b01565b73ffffffffffffffffffffffffffffffffffffffff16145b91505092915050565b8273ffffffffffffffffffffffffffffffffffffffff166120de82611263565b73ffffffffffffffffffffffffffffffffffffffff1614612134576040517f08c379a000000000000000000000000000000000000000000000000000000000815260040161212b906142b3565b60405180910390fd5b600073ffffffffffffffffffffffffffffffffffffffff168273ffffffffffffffffffffffffffffffffffffffff1614156121a4576040517f08c379a000000000000000000000000000000000000000000000000000000000815260040161219b90614345565b60405180910390fd5b6121af83838361282f565b6121ba600082611f27565b6001600360008573ffffffffffffffffffffffffffffffffffffffff1673ffffffffffffffffffffffffffffffffffffffff168152602001908152602001600020600082825461220a9190614365565b925050819055506001600360008473ffffffffffffffffffffffffffffffffffffffff1673ffffffffffffffffffffffffffffffffffffffff16815260200190815260200160002060008282546122619190613eda565b92505081905550816002600083815260200190815260200160002060006101000a81548173ffffffffffffffffffffffffffffffffffffffff021916908373ffffffffffffffffffffffffffffffffffffffff160217905550808273ffffffffffffffffffffffffffffffffffffffff168473ffffffffffffffffffffffffffffffffffffffff167fddf252ad1be2c89b69c2b068fc378daa952ba7f163c4a11628f55a4df523b3ef60405160405180910390a4612320838383612943565b505050565b6000600a60009054906101000a900473ffffffffffffffffffffffffffffffffffffffff16905081600a60006101000a81548173ffffffffffffffffffffffffffffffffffffffff021916908373ffffffffffffffffffffffffffffffffffffffff1602179055508173ffffffffffffffffffffffffffffffffffffffff168173ffffffffffffffffffffffffffffffffffffffff167f8be0079c531659141344cd1fd0a4f28419497f9722a3daafe3b4186f6b6457e060405160405180910390a35050565b612405828260405180602001604052806000815250612948565b5050565b8173ffffffffffffffffffffffffffffffffffffffff168373ffffffffffffffffffffffffffffffffffffffff161415612478576040517f08c379a000000000000000000000000000000000000000000000000000000000815260040161246f906143e5565b60405180910390fd5b80600560008573ffffffffffffffffffffffffffffffffffffffff1673ffffffffffffffffffffffffffffffffffffffff16815260200190815260200160002060008473ffffffffffffffffffffffffffffffffffffffff1673ffffffffffffffffffffffffffffffffffffffff16815260200190815260200160002060006101000a81548160ff0219169083151502179055508173ffffffffffffffffffffffffffffffffffffffff168373ffffffffffffffffffffffffffffffffffffffff167f17307eab39ab6107e8899845ad3d59bd9653f200f220920489ca2b5937696c3183604051612569919061318a565b60405180910390a3505050565b6125818484846120be565b61258d848484846129a3565b6125cc576040517f08c379a00000000000000000000000000000000000000000000000000000000081526004016125c390614477565b60405180910390fd5b50505050565b6060600b80546125e19061392b565b80601f016020809104026020016040519081016040528092919081815260200182805461260d9061392b565b801561265a5780601f1061262f5761010080835404028352916020019161265a565b820191906000526020600020905b81548152906001019060200180831161263d57829003601f168201915b5050505050905090565b606060008214156126ac576040518060400160405280600181526020017f300000000000000000000000000000000000000000000000000000000000000081525090506127c0565b600082905060005b600082146126de5780806126c790613cdb565b915050600a826126d791906144c6565b91506126b4565b60008167ffffffffffffffff8111156126fa576126f9613578565b5b6040519080825280601f01601f19166020018201604052801561272c5781602001600182028036833780820191505090505b5090505b600085146127b9576001826127459190614365565b9150600a8561275491906144f7565b60306127609190613eda565b60f81b81838151811061277657612775613c7d565b5b60200101907effffffffffffffffffffffffffffffffffffffffffffffffffffffffffffff1916908160001a905350600a856127b291906144c6565b9450612730565b8093505050505b919050565b60007f01ffc9a7000000000000000000000000000000000000000000000000000000007bffffffffffffffffffffffffffffffffffffffffffffffffffffffff1916827bffffffffffffffffffffffffffffffffffffffffffffffffffffffff1916149050919050565b61283a838383612b2b565b600073ffffffffffffffffffffffffffffffffffffffff168373ffffffffffffffffffffffffffffffffffffffff16141561287d5761287881612b30565b6128bc565b8173ffffffffffffffffffffffffffffffffffffffff168373ffffffffffffffffffffffffffffffffffffffff16146128bb576128ba8382612b79565b5b5b600073ffffffffffffffffffffffffffffffffffffffff168273ffffffffffffffffffffffffffffffffffffffff1614156128ff576128fa81612ce6565b61293e565b8273ffffffffffffffffffffffffffffffffffffffff168273ffffffffffffffffffffffffffffffffffffffff161461293d5761293c8282612db7565b5b5b505050565b505050565b6129528383612e36565b61295f60008484846129a3565b61299e576040517f08c379a000000000000000000000000000000000000000000000000000000000815260040161299590614477565b60405180910390fd5b505050565b60006129c48473ffffffffffffffffffffffffffffffffffffffff16613010565b15612b1e578373ffffffffffffffffffffffffffffffffffffffff1663150b7a026129ed611eb3565b8786866040518563ffffffff1660e01b8152600401612a0f949392919061457d565b6020604051808303816000875af1925050508015612a4b57506040513d601f19601f82011682018060405250810190612a4891906145de565b60015b612ace573d8060008114612a7b576040519150601f19603f3d011682016040523d82523d6000602084013e612a80565b606091505b50600081511415612ac6576040517f08c379a0000000000000000000000000000000000000000000000000000000008152600401612abd90614477565b60405180910390fd5b805181602001fd5b63150b7a0260e01b7bffffffffffffffffffffffffffffffffffffffffffffffffffffffff1916817bffffffffffffffffffffffffffffffffffffffffffffffffffffffff191614915050612b23565b600190505b949350505050565b505050565b6008805490506009600083815260200190815260200160002081905550600881908060018154018082558091505060019003906000526020600020016000909190919091505550565b60006001612b8684611315565b612b909190614365565b9050600060076000848152602001908152602001600020549050818114612c75576000600660008673ffffffffffffffffffffffffffffffffffffffff1673ffffffffffffffffffffffffffffffffffffffff168152602001908152602001600020600084815260200190815260200160002054905080600660008773ffffffffffffffffffffffffffffffffffffffff1673ffffffffffffffffffffffffffffffffffffffff168152602001908152602001600020600084815260200190815260200160002081905550816007600083815260200190815260200160002081905550505b6007600084815260200190815260200160002060009055600660008573ffffffffffffffffffffffffffffffffffffffff1673ffffffffffffffffffffffffffffffffffffffff16815260200190815260200160002060008381526020019081526020016000206000905550505050565b60006001600880549050612cfa9190614365565b9050600060096000848152602001908152602001600020549050600060088381548110612d2a57612d29613c7d565b5b906000526020600020015490508060088381548110612d4c57612d4b613c7d565b5b906000526020600020018190555081600960008381526020019081526020016000208190555060096000858152602001908152602001600020600090556008805480612d9b57612d9a61460b565b5b6001900381819060005260206000200160009055905550505050565b6000612dc283611315565b905081600660008573ffffffffffffffffffffffffffffffffffffffff1673ffffffffffffffffffffffffffffffffffffffff168152602001908152602001600020600083815260200190815260200160002081905550806007600084815260200190815260200160002081905550505050565b600073ffffffffffffffffffffffffffffffffffffffff168273ffffffffffffffffffffffffffffffffffffffff161415612ea6576040517f08c379a0000000000000000000000000000000000000000000000000000000008152600401612e9d90614686565b60405180910390fd5b612eaf81611ebb565b15612eef576040517f08c379a0000000000000000000000000000000000000000000000000000000008152600401612ee6906146f2565b60405180910390fd5b612efb6000838361282f565b6001600360008473ffffffffffffffffffffffffffffffffffffffff1673ffffffffffffffffffffffffffffffffffffffff1681526020019081526020016000206000828254612f4b9190613eda565b92505081905550816002600083815260200190815260200160002060006101000a81548173ffffffffffffffffffffffffffffffffffffffff021916908373ffffffffffffffffffffffffffffffffffffffff160217905550808273ffffffffffffffffffffffffffffffffffffffff16600073ffffffffffffffffffffffffffffffffffffffff167fddf252ad1be2c89b69c2b068fc378daa952ba7f163c4a11628f55a4df523b3ef60405160405180910390a461300c60008383612943565b5050565b6000808273ffffffffffffffffffffffffffffffffffffffff163b119050919050565b82805461303f9061392b565b90600052602060002090601f01602090048101928261306157600085556130a8565b82601f1061307a57805160ff19168380011785556130a8565b828001600101855582156130a8579182015b828111156130a757825182559160200191906001019061308c565b5b5090506130b591906130b9565b5090565b5b808211156130d25760008160009055506001016130ba565b5090565b6000604051905090565b600080fd5b600080fd5b60007fffffffff0000000000000000000000000000000000000000000000000000000082169050919050565b61311f816130ea565b811461312a57600080fd5b50565b60008135905061313c81613116565b92915050565b600060208284031215613158576131576130e0565b5b60006131668482850161312d565b91505092915050565b60008115159050919050565b6131848161316f565b82525050565b600060208201905061319f600083018461317b565b92915050565b6131ae8161316f565b81146131b957600080fd5b50565b6000813590506131cb816131a5565b92915050565b6000602082840312156131e7576131e66130e0565b5b60006131f5848285016131bc565b91505092915050565b600081519050919050565b600082825260208201905092915050565b60005b8381101561323857808201518184015260208101905061321d565b83811115613247576000848401525b50505050565b6000601f19601f8301169050919050565b6000613269826131fe565b6132738185613209565b935061328381856020860161321a565b61328c8161324d565b840191505092915050565b600060208201905081810360008301526132b1818461325e565b905092915050565b6000819050919050565b6132cc816132b9565b81146132d757600080fd5b50565b6000813590506132e9816132c3565b92915050565b600060208284031215613305576133046130e0565b5b6000613313848285016132da565b91505092915050565b600073ffffffffffffffffffffffffffffffffffffffff82169050919050565b60006133478261331c565b9050919050565b6133578161333c565b82525050565b6000602082019050613372600083018461334e565b92915050565b6133818161333c565b811461338c57600080fd5b50565b60008135905061339e81613378565b92915050565b600080604083850312156133bb576133ba6130e0565b5b60006133c98582860161338f565b92505060206133da858286016132da565b9150509250929050565b6133ed816132b9565b82525050565b600060208201905061340860008301846133e4565b92915050565b600080600060608486031215613427576134266130e0565b5b60006134358682870161338f565b93505060206134468682870161338f565b9250506040613457868287016132da565b9150509250925092565b600060208284031215613477576134766130e0565b5b60006134858482850161338f565b91505092915050565b600081519050919050565b600082825260208201905092915050565b6000819050602082019050919050565b6134c3816132b9565b82525050565b60006134d583836134ba565b60208301905092915050565b6000602082019050919050565b60006134f98261348e565b6135038185613499565b935061350e836134aa565b8060005b8381101561353f57815161352688826134c9565b9750613531836134e1565b925050600181019050613512565b5085935050505092915050565b6000602082019050818103600083015261356681846134ee565b905092915050565b600080fd5b600080fd5b7f4e487b7100000000000000000000000000000000000000000000000000000000600052604160045260246000fd5b6135b08261324d565b810181811067ffffffffffffffff821117156135cf576135ce613578565b5b80604052505050565b60006135e26130d6565b90506135ee82826135a7565b919050565b600067ffffffffffffffff82111561360e5761360d613578565b5b6136178261324d565b9050602081019050919050565b82818337600083830152505050565b6000613646613641846135f3565b6135d8565b90508281526020810184848401111561366257613661613573565b5b61366d848285613624565b509392505050565b600082601f83011261368a5761368961356e565b5b813561369a848260208601613633565b91505092915050565b6000602082840312156136b9576136b86130e0565b5b600082013567ffffffffffffffff8111156136d7576136d66130e5565b5b6136e384828501613675565b91505092915050565b60008060408385031215613703576137026130e0565b5b60006137118582860161338f565b9250506020613722858286016131bc565b9150509250929050565b600067ffffffffffffffff82111561374757613746613578565b5b6137508261324d565b9050602081019050919050565b600061377061376b8461372c565b6135d8565b90508281526020810184848401111561378c5761378b613573565b5b613797848285613624565b509392505050565b600082601f8301126137b4576137b361356e565b5b81356137c484826020860161375d565b91505092915050565b600080600080608085870312156137e7576137e66130e0565b5b60006137f58782880161338f565b94505060206138068782880161338f565b9350506040613817878288016132da565b925050606085013567ffffffffffffffff811115613838576138376130e5565b5b6138448782880161379f565b91505092959194509250565b60008060408385031215613867576138666130e0565b5b60006138758582860161338f565b92505060206138868582860161338f565b9150509250929050565b7f4f776e61626c653a2063616c6c6572206973206e6f7420746865206f776e6572600082015250565b60006138c6602083613209565b91506138d182613890565b602082019050919050565b600060208201905081810360008301526138f5816138b9565b9050919050565b7f4e487b7100000000000000000000000000000000000000000000000000000000600052602260045260246000fd5b6000600282049050600182168061394357607f821691505b60208210811415613957576139566138fc565b5b50919050565b7f4552433732313a20617070726f76656420717565727920666f72206e6f6e657860008201527f697374656e7420746f6b656e0000000000000000000000000000000000000000602082015250565b60006139b9602c83613209565b91506139c48261395d565b604082019050919050565b600060208201905081810360008301526139e8816139ac565b9050919050565b7f4552433732313a20617070726f76616c20746f2063757272656e74206f776e6560008201527f7200000000000000000000000000000000000000000000000000000000000000602082015250565b6000613a4b602183613209565b9150613a56826139ef565b604082019050919050565b60006020820190508181036000830152613a7a81613a3e565b9050919050565b7f4552433732313a20617070726f76652063616c6c6572206973206e6f74206f7760008201527f6e6572206e6f7220617070726f76656420666f7220616c6c0000000000000000602082015250565b6000613add603883613209565b9150613ae882613a81565b604082019050919050565b60006020820190508181036000830152613b0c81613ad0565b9050919050565b7f4552433732313a207472616e736665722063616c6c6572206973206e6f74206f60008201527f776e6572206e6f7220617070726f766564000000000000000000000000000000602082015250565b6000613b6f603183613209565b9150613b7a82613b13565b604082019050919050565b60006020820190508181036000830152613b9e81613b62565b9050919050565b7f455243373231456e756d657261626c653a206f776e657220696e646578206f7560008201527f74206f6620626f756e6473000000000000000000000000000000000000000000602082015250565b6000613c01602b83613209565b9150613c0c82613ba5565b604082019050919050565b60006020820190508181036000830152613c3081613bf4565b9050919050565b600081905092915050565b50565b6000613c52600083613c37565b9150613c5d82613c42565b600082019050919050565b6000613c7382613c45565b9150819050919050565b7f4e487b7100000000000000000000000000000000000000000000000000000000600052603260045260246000fd5b7f4e487b7100000000000000000000000000000000000000000000000000000000600052601160045260246000fd5b6000613ce6826132b9565b91507fffffffffffffffffffffffffffffffffffffffffffffffffffffffffffffffff821415613d1957613d18613cac565b5b600182019050919050565b7f455243373231456e756d657261626c653a20676c6f62616c20696e646578206f60008201527f7574206f6620626f756e64730000000000000000000000000000000000000000602082015250565b6000613d80602c83613209565b9150613d8b82613d24565b604082019050919050565b60006020820190508181036000830152613daf81613d73565b9050919050565b7f4552433732313a206f776e657220717565727920666f72206e6f6e657869737460008201527f656e7420746f6b656e0000000000000000000000000000000000000000000000602082015250565b6000613e12602983613209565b9150613e1d82613db6565b604082019050919050565b60006020820190508181036000830152613e4181613e05565b9050919050565b7f4552433732313a2062616c616e636520717565727920666f7220746865207a6560008201527f726f206164647265737300000000000000000000000000000000000000000000602082015250565b6000613ea4602a83613209565b9150613eaf82613e48565b604082019050919050565b60006020820190508181036000830152613ed381613e97565b9050919050565b6000613ee5826132b9565b9150613ef0836132b9565b9250827fffffffffffffffffffffffffffffffffffffffffffffffffffffffffffffffff03821115613f2557613f24613cac565b5b828201905092915050565b6000613f3b826132b9565b9150613f46836132b9565b9250817fffffffffffffffffffffffffffffffffffffffffffffffffffffffffffffffff0483118215151615613f7f57613f7e613cac565b5b828202905092915050565b7f4552433732314d657461646174613a2055524920717565727920666f72206e6f60008201527f6e6578697374656e7420746f6b656e0000000000000000000000000000000000602082015250565b6000613fe6602f83613209565b9150613ff182613f8a565b604082019050919050565b6000602082019050818103600083015261401581613fd9565b9050919050565b600081905092915050565b6000614032826131fe565b61403c818561401c565b935061404c81856020860161321a565b80840191505092915050565b60008190508160005260206000209050919050565b6000815461407a8161392b565b614084818661401c565b9450600182166000811461409f57600181146140b0576140e3565b60ff198316865281860193506140e3565b6140b985614058565b60005b838110156140db578154818901526001820191506020810190506140bc565b838801955050505b50505092915050565b60006140f88286614027565b91506141048285614027565b9150614110828461406d565b9150819050949350505050565b7f4f776e61626c653a206e6577206f776e657220697320746865207a65726f206160008201527f6464726573730000000000000000000000000000000000000000000000000000602082015250565b6000614179602683613209565b91506141848261411d565b604082019050919050565b600060208201905081810360008301526141a88161416c565b9050919050565b7f4552433732313a206f70657261746f7220717565727920666f72206e6f6e657860008201527f697374656e7420746f6b656e0000000000000000000000000000000000000000602082015250565b600061420b602c83613209565b9150614216826141af565b604082019050919050565b6000602082019050818103600083015261423a816141fe565b9050919050565b7f4552433732313a207472616e736665722066726f6d20696e636f72726563742060008201527f6f776e6572000000000000000000000000000000000000000000000000000000602082015250565b600061429d602583613209565b91506142a882614241565b604082019050919050565b600060208201905081810360008301526142cc81614290565b9050919050565b7f4552433732313a207472616e7366657220746f20746865207a65726f2061646460008201527f7265737300000000000000000000000000000000000000000000000000000000602082015250565b600061432f602483613209565b915061433a826142d3565b604082019050919050565b6000602082019050818103600083015261435e81614322565b9050919050565b6000614370826132b9565b915061437b836132b9565b92508282101561438e5761438d613cac565b5b828203905092915050565b7f4552433732313a20617070726f766520746f2063616c6c657200000000000000600082015250565b60006143cf601983613209565b91506143da82614399565b602082019050919050565b600060208201905081810360008301526143fe816143c2565b9050919050565b7f4552433732313a207472616e7366657220746f206e6f6e20455243373231526560008201527f63656976657220696d706c656d656e7465720000000000000000000000000000602082015250565b6000614461603283613209565b915061446c82614405565b604082019050919050565b6000602082019050818103600083015261449081614454565b9050919050565b7f4e487b7100000000000000000000000000000000000000000000000000000000600052601260045260246000fd5b60006144d1826132b9565b91506144dc836132b9565b9250826144ec576144eb614497565b5b828204905092915050565b6000614502826132b9565b915061450d836132b9565b92508261451d5761451c614497565b5b828206905092915050565b600081519050919050565b600082825260208201905092915050565b600061454f82614528565b6145598185614533565b935061456981856020860161321a565b6145728161324d565b840191505092915050565b6000608082019050614592600083018761334e565b61459f602083018661334e565b6145ac60408301856133e4565b81810360608301526145be8184614544565b905095945050505050565b6000815190506145d881613116565b92915050565b6000602082840312156145f4576145f36130e0565b5b6000614602848285016145c9565b91505092915050565b7f4e487b7100000000000000000000000000000000000000000000000000000000600052603160045260246000fd5b7f4552433732313a206d696e7420746f20746865207a65726f2061646472657373600082015250565b6000614670602083613209565b915061467b8261463a565b602082019050919050565b6000602082019050818103600083015261469f81614663565b9050919050565b7f4552433732313a20746f6b656e20616c7265616479206d696e74656400000000600082015250565b60006146dc601c83613209565b91506146e7826146a6565b602082019050919050565b6000602082019050818103600083015261470b816146cf565b905091905056fea2646970667358221220a2b06c206776109cae66878663eb7d1de64f0befb09d4cdc99ee38c1313fd81e64736f6c634300080b0033",
  "immutableReferences": {},
  "source": "// SPDX-License-Identifier: MIT\n\n// Amended by HashLips\n/**\n    !Disclaimer!\n    These contracts have been used to create tutorials,\n    and was created for the purpose to teach people\n    how to create smart contracts on the blockchain.\n    please review this code on your own before using any of\n    the following code for production.\n    HashLips will not be liable in any way if for the use \n    of the code. That being said, the code has been tested \n    to the best of the developers' knowledge to work as intended.\n*/\n\npragma solidity >=0.7.0 <0.9.0;\n\nimport \"@openzeppelin/contracts/token/ERC721/extensions/ERC721Enumerable.sol\";\nimport \"@openzeppelin/contracts/access/Ownable.sol\";\n\n\n\ncontract NewJholeKeta is ERC721Enumerable, Ownable {\n  using Strings for uint256;\n\n  string baseURI;\n  string public baseExtension = \".json\";\n  uint256 public cost = 0.01 ether;\n  uint256 public maxSupply = 110;\n  uint256 public maxMintAmount = 5;\n  uint256 public maxAmountForAnAccount = 5;\n  bool public paused = false;\n  bool public revealed = true;\n  string public notRevealedUri;\n  mapping(address=>bool) private whiteListedMembers;\n\n  constructor(\n    string memory _name,\n    string memory _symbol,\n    string memory _initBaseURI,\n    string memory _initNotRevealedUri\n  ) ERC721(_name, _symbol) {\n    setBaseURI(_initBaseURI);\n    setNotRevealedURI(_initNotRevealedUri);\n  }\n\n  // internal\n  function _baseURI() internal view virtual override returns (string memory) {\n    return baseURI;\n  }\n\n  function myWalletBalance() public  view returns (uint){\n    uint[] memory totalBalanceOfAccount = walletOfOwner(msg.sender);\n    return totalBalanceOfAccount.length;\n  }\n\n  function isAccountWhiteListed() public view returns (bool){\n      return whiteListedMembers[msg.sender];\n  }\n\n  // public\n  function mint(uint256 _mintAmount) public payable {\n    uint256 supply = totalSupply();\n    require(!paused);\n    require(_mintAmount > 0);\n    require(_mintAmount <= maxMintAmount);\n    require(supply + _mintAmount <= maxSupply);\n    require (myWalletBalance()<maxMintAmount);\n   \n\n    if (msg.sender != owner()) {\n      if(!whiteListedMembers[msg.sender]){\n            require(msg.value >= cost * _mintAmount);\n      }\n     \n    }\n\n    for (uint256 i = 1; i <= _mintAmount; i++) {\n      _safeMint(msg.sender, supply + i);\n    }\n  }\n\n  function walletOfOwner(address _owner)\n    public\n    view\n    returns (uint256[] memory)\n  {\n    uint256 ownerTokenCount = balanceOf(_owner);\n    uint256[] memory tokenIds = new uint256[](ownerTokenCount);\n    for (uint256 i; i < ownerTokenCount; i++) {\n      tokenIds[i] = tokenOfOwnerByIndex(_owner, i);\n    }\n    return tokenIds;\n  }\n\n  function tokenURI(uint256 tokenId)\n    public\n    view\n    virtual\n    override\n    returns (string memory)\n  {\n    require(\n      _exists(tokenId),\n      \"ERC721Metadata: URI query for nonexistent token\"\n    );\n    \n    if(revealed == false) {\n        return notRevealedUri;\n    }\n\n    string memory currentBaseURI = _baseURI();\n    return bytes(currentBaseURI).length > 0\n        ? string(abi.encodePacked(currentBaseURI, tokenId.toString(), baseExtension))\n        : \"\";\n  }\n\n  //only owner\n  function reveal() public onlyOwner {\n      revealed = true;\n  }\n\n  function addWhiteListedMember(address _addresToAdd) public onlyOwner{\n        whiteListedMembers[_addresToAdd] = true;\n  }\n   function setMaxWalletBalance(uint _maxBalancetohave) public onlyOwner{\n       maxAmountForAnAccount = _maxBalancetohave;\n  }\n  \n  function setCost(uint256 _newCost) public onlyOwner {\n    cost = _newCost;\n  }\n\n  function setmaxMintAmount(uint256 _newmaxMintAmount) public onlyOwner {\n    maxMintAmount = _newmaxMintAmount;\n  }\n  \n  function setNotRevealedURI(string memory _notRevealedURI) public onlyOwner {\n    notRevealedUri = _notRevealedURI;\n  }\n\n  function setBaseURI(string memory _newBaseURI) public onlyOwner {\n    baseURI = _newBaseURI;\n  }\n\n  function setBaseExtension(string memory _newBaseExtension) public onlyOwner {\n    baseExtension = _newBaseExtension;\n  }\n\n  function pause(bool _state) public onlyOwner {\n    paused = _state;\n  }\n \n  function withdraw() public payable onlyOwner {\n  \n    // =============================================================================\n    \n    // This will payout the owner 95% of the contract balance.\n    // Do not remove this otherwise you will not be able to withdraw the funds.\n    // =============================================================================\n    (bool os, ) = payable(owner()).call{value: address(this).balance}(\"\");\n    require(os);\n    // =============================================================================\n  }\n}\n",
  "sourcePath": "C:\\Users\\AnJaN\\Desktop\\others____\\courses\\solidity\\newJholeKeta\\contracts\\JholeKeto.sol",
  "compiler": {
    "name": "solc",
    "version": "0.8.11+commit.d7f03943.Emscripten.clang"
  },
  "schemaVersion": "3.4.4",
  "updatedAt": "2022-06-20T15:32:24.851Z",
  "networkType": "ethereum",
  "devdoc": {
    "kind": "dev",
    "methods": {
      "approve(address,uint256)": {
        "details": "See {IERC721-approve}."
      },
      "balanceOf(address)": {
        "details": "See {IERC721-balanceOf}."
      },
      "getApproved(uint256)": {
        "details": "See {IERC721-getApproved}."
      },
      "isApprovedForAll(address,address)": {
        "details": "See {IERC721-isApprovedForAll}."
      },
      "name()": {
        "details": "See {IERC721Metadata-name}."
      },
      "owner()": {
        "details": "Returns the address of the current owner."
      },
      "ownerOf(uint256)": {
        "details": "See {IERC721-ownerOf}."
      },
      "renounceOwnership()": {
        "details": "Leaves the contract without owner. It will not be possible to call `onlyOwner` functions anymore. Can only be called by the current owner. NOTE: Renouncing ownership will leave the contract without an owner, thereby removing any functionality that is only available to the owner."
      },
      "safeTransferFrom(address,address,uint256)": {
        "details": "See {IERC721-safeTransferFrom}."
      },
      "safeTransferFrom(address,address,uint256,bytes)": {
        "details": "See {IERC721-safeTransferFrom}."
      },
      "setApprovalForAll(address,bool)": {
        "details": "See {IERC721-setApprovalForAll}."
      },
      "supportsInterface(bytes4)": {
        "details": "See {IERC165-supportsInterface}."
      },
      "symbol()": {
        "details": "See {IERC721Metadata-symbol}."
      },
      "tokenByIndex(uint256)": {
        "details": "See {IERC721Enumerable-tokenByIndex}."
      },
      "tokenOfOwnerByIndex(address,uint256)": {
        "details": "See {IERC721Enumerable-tokenOfOwnerByIndex}."
      },
      "tokenURI(uint256)": {
        "details": "See {IERC721Metadata-tokenURI}."
      },
      "totalSupply()": {
        "details": "See {IERC721Enumerable-totalSupply}."
      },
      "transferFrom(address,address,uint256)": {
        "details": "See {IERC721-transferFrom}."
      },
      "transferOwnership(address)": {
        "details": "Transfers ownership of the contract to a new account (`newOwner`). Can only be called by the current owner."
      }
    },
    "version": 1
  },
  "userdoc": {
    "kind": "user",
    "methods": {},
    "version": 1
  }
}